:04000000F8EF05F020
:1000080000C018F001C017F002C016F003C015F0C8
:10001800E1CF1FF0E2CF20F0E9CF1DF0EACF1EF0CC
:10002800F5CF1CF0F8CF19F0F7CF1AF0F6CF1BF088
:100038009EAAAFD0AECF6FF49E9A3150321010E026
:10004800300E04016F5D09E36F51390806E3300E85
:100058006F5D356E366A000E365A316A326A98D04C
:1000680078D0010E316E000E326E92D004016D0E02
:10007800736F6DEC04F00D0E0401736F6DEC04F0FA
:100088000A0E0401736F6DEC04F02F6A306AC4EC39
:1000980005F0010E396E000E3A6EF28679D0396A93
:1000A8003A6AF296396A3A6A690E0401736F6DEC1E
:1000B80004F00D0E0401736F6DEC04F00A0E0401D8
:1000C800736F6DEC04F064D0216A226A61D0010E6E
:1000D800216E000E226E5CD0020E216E000E226E82
:1000E80057D0A80E0401706F0D0E716F000E726F5D
:1000F800BBEC04F00D0E0401736FEBDB0A0E040178
:10010800736FE7DB380E0401706F0D0E716F000E10
:10011800726FBBEC04F00D0E0401736FDADB0A0E8C
:100128000401736FD6DB39C070F4E1EC04F00D0EF6
:100138000401736FCEDB0A0E0401736FCADB28D08B
:10014800010E276E000E286E23D0296A2A6A20D055
:100158001FD004016F516B0AD8B483D76F51670A57
:10016800D8B484D76F51730A9AE06F51650AACE02E
:100178006F51700AACE06F516F0AAEE06F513F0AE1
:10018800B0E06F51750ADCE06F51720ADEE0E0D72B
:100198006DD0000E221802E1000E21184BE1000E6E
:1001A800241802E1000E23180DE12F6A306A336A21
:1001B800346A010E2B6E000E2C6E010E236E000E9B
:1001C800246E27D0010E3324006E000E3420016EF9
:1001D80000C033F001C034F03450361802E1355015
:1001E800331817E12B6A2C6A236A246A3F0E2F24DE
:1001F800016E000E3020026E01C0E9FF02C0EAFF66
:10020800EECF00F0002A01C0E1FF02C0E2FF00C00B
:10021800E6FF3F0E2F24E96E000E3020EA6EEECF87
:1002280001F00150FF0A06E1370EF216010E276EA3
:10023800000E286E000E221802E1010E211802E1BC
:10024800A3EC05F0000E221802E1020E21180AE1C3
:10025800010E2F24006E000E3020016E00C02FF01A
:1002680001C030F081AE01D0FDD7F2901CC0F5FF7F
:1002780019C0F8FF1AC0F7FF1BC0F6FF18C000F03E
:1002880017C001F016C002F015C003F01DC0E9FF49
:0E0298001EC0EAFF1FC0E1FF20C0E2FF110000
:1002A6000B6A0A6A096A086A0E6A03340836045039
:1002B600085E0550D8A0053C095E0650D8A0063C4D
:1002C6000A5E0750D8A0073C0B5EE86AD8A0010E6C
:1002D6000E5E0336070E0C6E0334083609360A36F0
:1002E6000B360E36045003A012D0085E0550D8A077
:1002F600053C095E0650D8A0063C0A5E0750D8A009
:10030600073C0B5EE86AD8A0010E0E5E11D00826E7
:100316000550D8B0053C09260650D8B0063C0A263A
:100326000750D8B0073C0B26E86AD8B0010E0E2657
:1003360003360C2ED1D70234083609360A360B3668
:100346000E36045003A012D0085E0550D8A0053C16
:10035600095E0650D8A0063C0A5E0750D8A0073CA6
:100366000B5EE86AD8A0010E0E5E11D00826055075
:10037600D8B0053C09260650D8B0063C0A260750D8
:10038600D8B0073C0B26E86AD8B0010E0E26023616
:10039600070E0C6E0234083609360A360B360E3650
:1003A600045002A012D0085E0550D8A0053C095E94
:1003B6000650D8A0063C0A5E0750D8A0073C0B5E44
:1003C600E86AD8A0010E0E5E11D008260550D8B0F6
:1003D600053C09260650D8B0063C0A260750D8B078
:1003E600073C0B26E86AD8B0010E0E2602360C2E04
:1003F600D1D70134083609360A360B360E36045084
:1004060002A012D0085E0550D8A0053C095E065031
:10041600D8A0063C0A5E0750D8A0073C0B5EE86AE7
:10042600D8A0010E0E5E11D008260550D8B0053CA6
:1004360009260650D8B0063C0A260750D8B0073C15
:100446000B26E86AD8B0010E0E260136070E0C6E92
:100456000134083609360A360B360E36045001A02A
:1004660012D0085E0550D8A0053C095E0650D8A0FB
:10047600063C0A5E0750D8A0073C0B5EE86AD8A087
:10048600010E0E5E11D008260550D8B0053C09268F
:100496000650D8B0063C0A260750D8B0073C0B26B3
:1004A600E86AD8B0010E0E2601360C2ED1D70034DC
:1004B600083609360A360B360E36045001A012D01D
:1004C600085E0550D8A0053C095E0650D8A0063C3B
:1004D6000A5E0750D8A0073C0B5EE86AD8A0010E5A
:1004E6000E5E11D008260550D8B0053C09260650E8
:1004F600D8B0063C0A260750D8B0073C0B26E86A57
:10050600D8B0010E0E260036070E0C6E00340836E3
:1005160009360A360B360E36045000A012D0085E95
:100526000550D8A0053C095E0650D8A0063C0A5ED8
:100536000750D8A0073C0B5EE86AD8A0010E0E5EF5
:1005460011D008260550D8B0053C09260650D8B06B
:10055600063C0A260750D8B0073C0B26E86AD8B0F6
:10056600010E0E2600360C2ED1D700B00ED0045048
:1005760008260550D8B0053C09260650D8B0063CDA
:0C0586000A260750D8B0073C0B261200D4
:0E059200ACB202D00000FCD76EC4ADFF120068
:1005A000086A096A100E0C6E0134083609360450C8
:1005B000085E0550D8A0053C095ED8B007D00450AD
:1005C00008260550D8B0053C0926D89000360136DB
:0605D0000C2EEAD7120018
:1005D600F250026EF29E0500FF6A0150FE6E005058
:0805E600FD6E02BEF28E120050
:1005EE000401676B0B0E675D0AE267516425E16ECD
:1005FE00000E6521E26E300EE66E672BF3D7675163
:10060E006425E16E000E6521E26EE66A000E006E54
:10061E00631908E10050621905E10050611902E109
:10062E006051000A01E17CD0666B800E6319006E8A
:10063E00800E005C08E1000E625D05E1000E615D5A
:10064E0002E1000E605D0FE2010E666F686B696B72
:10065E006A6B6B6B6051685F6151695B62516A5B7B
:10066E0063516B5B08D060C468F461C469F462C402
:10067E006AF463C46BF40A0E676F000E006E6B199A
:10068E0008E100506A1905E10050691902E168514C
:10069E00000A3EE0675164256C6F000E65216D6F98
:1006AE000A0E046E000E056E066E076E68C400F02C
:1006BE0069C401F06AC402F06BC403F0EDDD08C03A
:1006CE0000F009C001F00AC002F00BC003F0300EBA
:1006DE0000266CC4E1FF6DC4E2FF00C0E6FF6707B1
:1006EE000A0E046E000E056E066E076E68C400F0EC
:1006FE0069C401F06AC402F06BC403F0CDDD00C022
:10070E0068F401C069F402C06AF403C06BF4B5D793
:10071E00665306E064C4E1FF65C4E2FF2D0EE66E8B
:02072E001200B7
:100730000401656B060E655D0AE265516225E16E96
:10074000000E6321E26E300EE66E652BF3D7655125
:100750006225E16E000E6321E26EE66A000E611909
:1007600002E1000E601901E152D0646B800E611944
:10077000006E800E005C02E1000E605D0AE2010E78
:10078000646F60510008666F61C467F4000E6757BC
:1007900004D060C466F461C467F4050E656F000E92
:1007A000671902E1000E66192AE065516225686F3B
:1007B000000E6321696F0A0E046E000E056E66C49A
:1007C00000F067C401F0ECDE08C000F009C001F0E1
:1007D000300E002668C4E1FF69C4E2FF00C0E6FFF6
:1007E00065070A0E046E000E056E66C400F067C44D
:1007F00001F0D6DE00C066F401C067F4D0D76453C0
:1008000006E062C4E1FF63C4E2FF2D0EE66E120053
:100810005EC460F45FC461F4000E04015FBFFF0EAC
:10082000626F636F3F0E646F040E656FE0DE2D6ACA
:100830002E6A3F0E2D24E96E040E2E20EA6EEECFB6
:1008400001F00150000A18E0ACB201D0FDD73F0E14
:100850002D24E96E040E2E20EA6EEECF00F000C0CB
:10086000ADFF010E2D24006E000E2E20016E00C083
:0A0870002DF001C02EF0DDD71200BC
:10087A005EC460F45FC461F43F0E0401626F040E4B
:10088A00636F51DF2D6A2E6A3F0E2D24E96E040E26
:10089A002E20EA6EEECF01F00150000A18E0ACB249
:1008AA0001D0FDD73F0E2D24E96E040E2E20EA6EEC
:1008BA00EECF00F000C0ADFF010E2D24006E000E39
:1008CA002E20016E00C02DF001C02EF0DDD71200DF
:0C08DA00ACB201D0FDD773C4ADFF12001A
:0C08E600ACB201D0FDD773C4ADFF12000E
:1008F2005CC4E1FF5DC4E2FF5EC4E6FF5AC400F0DF
:080902005BC401F067DE120086
:10090A00926AFD0E936EFF0E946E9690969296944E
:04091A00969612009B
:10091E00920E04015A6F050E5B6F6E0E5C6F040E25
:10092E005D6FFF0E566FFF0E576F000E586F000E65
:10093E00596FFF0E526FFF0E536F000E546F000E65
:10094E00556FFF0E4E6FFF0E4F6F000E506F000E65
:10095E00516FAC8A900EAB6E948E949C9EAA03D06F
:08096E00AECF00F0FBD7120030
:1009760070C4F6FF71C4F7FF72C4F8FF0900F5CF23
:1009860001F00150000A11E070C4F6FF71C4F7FFD0
:1009960072C4F8FF0900F5CF73F4A2DF010E04015B
:0C09A6007027000E71237223E3D71200AB
:1009B2000900F5CFE6FF0006FBE10106F9E11200AE
:1009C20004017051010A04E16D0E736F85DF04D0DA
:0A09D200690E0401736F80DF12004C
:1009DC00770E04015E6F87DF0D0E04015E6F83DFFF
:1009EC000A0E04015E6F7FDF3B6A3C6A3D6A3E6A19
:1009FC00000E3E5C08E1000E3D5C05E1040E3C5C23
:100A0C0002E1000E3B5C3DE23F0E3B24E96E000E22
:100A1C003C20EA6EEECF01F00150000A1DE03BC015
:100A2C005EF43CC05FF4EEDE3B0E5E6F5CDF3F0EAF
:100A3C003B24E96E000E3C20EA6EEECF00F000C0C5
:100A4C005EF4000E04015F6F12DF0D0E5E6F4BDF64
:100A5C000A0E04015E6F47DF010E3B24006E000E90
:100A6C003C20016E000E3D20026E000E3E20036EF7
:100A7C0000C03BF001C03CF002C03DF003C03EF0B2
:100A8C00B7D7640E04015E6F2EDF0D0E04015E6F8E
:100A9C002ADF0A0E04015E6F26DF6D0E04015E6F05
:100AAC0022DF0D0E04015E6F1EDF0A0E04015E6F65
:040ABC001ADF12002B
:100AC000770E04015E6F15DF0D0E04015E6F11DFFE
:100AD0000A0E04015E6F0DDF29C05EF42AC05FF4C8
:100AE00097DE3B0E5E6F05DF2FC05EF430C05FF413
:100AF000C4DE0D0E5E6FFDDE0A0E04015E6FF9DED0
:100B0000640E04015E6FF5DE0D0E04015E6FF1DE12
:100B10000A0E04015E6FEDDE6D0E04015E6FE9DE0C
:100B20000D0E04015E6FE5DE0A0E04015E6FE1DE6C
:100B3000010E2924006E000E2A20016E00C029F04B
:060B400001C02AF01200C2
:100B4600000E2C1802E1010E2B180AE1010E2F24CB
:100B5600006E000E3020016E00C02FF001C030F094
:100B6600800E040A006E800E3018005C02E12F50E1
:100B7600000806E22F6A306A2B6A2C6A236A246A06
:020B860012005B
:100B88003B6A3C6A3D6A3E6A000E3E5C08E1000E24
:100B98003D5C05E1040E3C5C02E1000E3B5C1CE29E
:100BA8003F0E3B24E16E000E3C20E26EE66A010E29
:100BB8003B24006E000E3C20016E000E3D20026EAC
:100BC800000E3E20036E00C03BF001C03CF002C0A6
:0A0BD8003DF003C03EF0D8D7120034
:0E0BE200F18CC00EF212F286F2909D8A120083
:100BF000E0EC06F08ADEC26A84928494849081924A
:100C0000B886040EB06EE10EAF6EAC8488DE3D0E89
:100C10000B6EE10E0C6E3F0E0D6E0D2EFED70C2EE0
:100C2000FCD70B2EFAD700000000AEDFDADFF29619
:100C3000000E381802E1000E3718D8A47CD0000E40
:100C40003A1802E1010E3918D8A474D0000E221807
:100C500002E1000E211810E182A00CD0000E26182F
:100C600002E1000E251805E16EDF010E256E000E73
:100C7000266E02D0256A266A000E221802E1010EB5
:100C800021182FE1010E2B6E000E2C6E82A018D0C1
:100C90003F0E2F24016E000E3020026E01C0E9FFCE
:100CA00002C0EAFFEECF00F0002A01C0E1FF02C05F
:100CB000E2FF00C0E6FF2F6A306A82A001D0FDD7B4
:100CC0003F0E2F24E96E000E3020EA6EEECF01F0C9
:100CD0000150FF0A06E1370EF216010E276E000ED4
:100CE000286E000E221802E1020E211804E1010E06
:100CF0002B6E000E2C6E000E281802E1010E271834
:100D000018E1800E006E800E2218005C02E1215076
:100D1000010802E363DE38DF000E221802E1020E52
:100D2000211803E1CDDE2F6A306A276A286AC80ECF
:080D3000F21285D77DD7FFD731
:100DC00010EE21F01E0E006E010E016E8A0EF66E00
:0E0DD0000D0EF76E000EF86ED9EC04F0120056
:100D380046696E64206D7920736F757263652063F0
:100D48006F6465206174203A2068747470733A2F58
:100D58002F6769746875622E636F6D2F42617061C9
:100D68004C43412F4E75636C6561722D44697369FC
:100D78006E746567726174696F6E2D417070446539
:020D88007600F3
:020D8A00000067
:020D8C00010064
:020D8E00010062
:020D9000000061
:020D920000005F
:020D940000005D
:020D960000005B
:020D9800000059
:020D9A00010056
:020D9C00000055
:020D9E00010052
:020DA000000051
:020DA20000004F
:040DA400000000004B
:100DA80048656C6C6F2066726F6D2050494331380E
:080DB8004634353530202100DE
:020000040030CA
:0E000000010E1F1EFF8381FF0FC00FE00F4097
:00000001FF
