:04000000F8EF04F021
:1000080000C017F001C016F002C015F0E1CF1AF0D9
:10001800E2CF1BF0E9CF18F0EACF19F09EAA3FD043
:10002800AECF73F49E9A3B503C1010E0300E0401A2
:10003800735D09E37351390806E3300E735D336E5F
:10004800346A000E345A3B6A3C6A28D016D0010E36
:100058003B6E000E3C6E22D0010E1C6E000E1D6E13
:100068001DD01C6A1D6A1AD0010E2D6E000E2E6E50
:1000780015D02D6A2E6A12D011D0040173516B0A63
:10008800E6E07351670AE8E07351730AEAE07351D6
:10009800650AEAE07351700AECE0EED75CD0000E16
:1000A8002E1802E1000E2D184BE1000E2A1802E16D
:1000B800000E29180DE1206A216A396A3A6A010E90
:1000C800226E000E236E010E296E000E2A6E27D0B6
:1000D800010E3924006E000E3A20016E00C039F07E
:1000E80001C03AF03A50341802E13350391817E198
:1000F800226A236A296A2A6A410E2024016E000EA8
:100108002120026E01C0E9FF02C0EAFFEECF00F035
:10011800002A01C0E1FF02C0E2FF00C0E6FF410E75
:100128002024E96E000E2120EA6EEECF01F0015086
:10013800040A06E1370EF216010E256E000E266E31
:10014800000E2E1802E1010E2D1801E1F8DB81AE38
:1001580001D0FDD7F29017C000F016C001F015C00D
:1001680002F018C0E9FF19C0EAFF1AC0E1FF1BC07E
:04017800E2FF110091
:10017C000B6A0A6A096A086A0E6A03340836045064
:10018C00085E0550D8A0053C095E0650D8A0063C78
:10019C000A5E0750D8A0073C0B5EE86AD8A0010E97
:1001AC000E5E0336070E0C6E0334083609360A361B
:1001BC000B360E36045003A012D0085E0550D8A0A2
:1001CC00053C095E0650D8A0063C0A5E0750D8A034
:1001DC00073C0B5EE86AD8A0010E0E5E11D0082613
:1001EC000550D8B0053C09260650D8B0063C0A2666
:1001FC000750D8B0073C0B26E86AD8B0010E0E2683
:10020C0003360C2ED1D70234083609360A360B3693
:10021C000E36045003A012D0085E0550D8A0053C41
:10022C00095E0650D8A0063C0A5E0750D8A0073CD1
:10023C000B5EE86AD8A0010E0E5E11D008260550A0
:10024C00D8B0053C09260650D8B0063C0A26075003
:10025C00D8B0073C0B26E86AD8B0010E0E26023641
:10026C00070E0C6E0234083609360A360B360E367B
:10027C00045002A012D0085E0550D8A0053C095EBF
:10028C000650D8A0063C0A5E0750D8A0073C0B5E6F
:10029C00E86AD8A0010E0E5E11D008260550D8B021
:1002AC00053C09260650D8B0063C0A260750D8B0A3
:1002BC00073C0B26E86AD8B0010E0E2602360C2E2F
:1002CC00D1D70134083609360A360B360E360450AF
:1002DC0002A012D0085E0550D8A0053C095E06505D
:1002EC00D8A0063C0A5E0750D8A0073C0B5EE86A13
:1002FC00D8A0010E0E5E11D008260550D8B0053CD2
:10030C0009260650D8B0063C0A260750D8B0073C40
:10031C000B26E86AD8B0010E0E260136070E0C6EBD
:10032C000134083609360A360B360E36045001A055
:10033C0012D0085E0550D8A0053C095E0650D8A026
:10034C00063C0A5E0750D8A0073C0B5EE86AD8A0B2
:10035C00010E0E5E11D008260550D8B0053C0926BA
:10036C000650D8B0063C0A260750D8B0073C0B26DE
:10037C00E86AD8B0010E0E2601360C2ED1D7003407
:10038C00083609360A360B360E36045001A012D048
:10039C00085E0550D8A0053C095E0650D8A0063C66
:1003AC000A5E0750D8A0073C0B5EE86AD8A0010E85
:1003BC000E5E11D008260550D8B0053C0926065013
:1003CC00D8B0063C0A260750D8B0073C0B26E86A82
:1003DC00D8B0010E0E260036070E0C6E003408360F
:1003EC0009360A360B360E36045000A012D0085EC1
:1003FC000550D8A0053C095E0650D8A0063C0A5E04
:10040C000750D8A0073C0B5EE86AD8A0010E0E5E20
:10041C0011D008260550D8B0053C09260650D8B096
:10042C00063C0A260750D8B0073C0B26E86AD8B021
:10043C00010E0E2600360C2ED1D700B00ED0045073
:10044C0008260550D8B0053C09260650D8B0063C05
:0C045C000A260750D8B0073C0B261200FF
:0E046800ACB202D00000FCD772C4ADFF12008F
:10047600086A096A100E0C6E0134083609360450F3
:10048600085E0550D8A0053C095ED8B007D00450D8
:1004960008260550D8B0053C0926D8900036013606
:0604A6000C2EEAD7120043
:1004AC00F250026EF29E0500FF6A0150FE6E005083
:0804BC00FD6E02BEF28E12007B
:1004C40004016B6B0B0E6B5D0AE26B516825E16EE8
:1004D400000E6921E26E300EE66E6B2BF3D76B5182
:1004E4006825E16E000E6921E26EE66A000E006E78
:1004F400671908E10050661905E10050651902E129
:100504006451000A01E17CD06A6B800E6719006EA9
:10051400800E005C08E1000E665D05E1000E655D7D
:1005240002E1000E645D0FE2010E6A6F6C6B6D6B8D
:100534006E6B6F6B64516C5F65516D5B66516E5B86
:1005440067516F5B08D064C46CF465C46DF466C411
:100554006EF467C46FF40A0E6B6F000E006E6F19B1
:1005640008E100506E1905E100506D1902E16C516B
:10057400000A3EE06B516825706F000E6921716FAF
:100584000A0E046E000E056E066E076E6CC400F053
:100594006DC401F06EC402F06FC403F0EDDD08C059
:1005A40000F009C001F00AC002F00BC003F0300EE5
:1005B400002670C4E1FF71C4E2FF00C0E6FF6B07D0
:1005C4000A0E046E000E056E066E076E6CC400F013
:1005D4006DC401F06EC402F06FC403F0CDDD00C041
:1005E4006CF401C06DF402C06EF403C06FF4B5D7AF
:1005F4006A5306E068C4E1FF69C4E2FF2D0EE66EAB
:020604001200E2
:100606000401696B060E695D0AE269516625E16EB1
:10061600000E6721E26E300EE66E692BF3D7695144
:100626006625E16E000E6721E26EE66A000E651928
:1006360002E1000E641901E152D0686B800E651963
:10064600006E800E005C02E1000E645D0AE2010E9F
:10065600686F645100086A6F65C46BF4000E6B57CF
:1006660004D064C46AF465C46BF4050E696F000EA9
:100676006B1902E1000E6A192AE0695166256C6F52
:10068600000E67216D6F0A0E046E000E056E6AC4B9
:1006960000F06BC401F0ECDE08C000F009C001F008
:1006A600300E00266CC4E1FF6DC4E2FF00C0E6FF19
:1006B60069070A0E046E000E056E6AC400F06BC46C
:1006C60001F0D6DE00C06AF401C06BF4D0D76853DF
:1006D60006E066C4E1FF67C4E2FF2D0EE66E120077
:1006E6005EC4E1FF5FC4E2FF62C4E6FF5CC400F0E3
:0806F6005DC401F0D8DE120022
:1006FE0062C464F463C465F4000E040163BFFF0EAC
:10070E00666F676F410E686F040E696FD4DE376ACD
:10071E00386A410E3724E96E040E3820EA6EEECFA9
:10072E0001F00150000A18E0ACB201D0FDD7410E25
:10073E003724E96E040E3820EA6EEECF00F000C0CA
:10074E00ADFF010E3724006E000E3820016E00C082
:0A075E0037F001C038F0DDD71200BB
:1007680062C464F463C465F4410E0401666F040E48
:10077800676F45DF376A386A410E3724E96E040E21
:100788003820EA6EEECF01F00150000A18E0ACB252
:1007980001D0FDD7410E3724E96E040E3820EA6EE9
:1007A800EECF00F000C0ADFF010E3724006E000E42
:1007B8003820016E00C037F001C038F0DDD71200D4
:1007C800770E0401626F8BDF0D0E0401626F87DF05
:1007D8000A0E0401626F83DF2F6A306A316A326A57
:1007E800000E325C08E1000E315C05E1040E305C5D
:1007F80002E1000E2F5C32E22FC062F430C063F4D5
:100808007ADF3B0E626F6BDF410E2F24E96E000E1C
:100818003020EA6EEECF00F000C062F4000E040152
:10082800636F9EDF0D0E626F5ADF0A0E0401626F5E
:1008380056DF010E2F24006E000E3020016E000ED0
:100848003120026E000E3220036E00C02FF001C06E
:1008580030F002C031F003C032F0C2D76D0E04018F
:10086800626F3DDF0D0E0401626F39DF0A0E04016D
:06087800626F35DF120083
:10087E00FF0E3D6EFF0E3E6EFF0E3F6EFF0E406E84
:10088E00C26A241C006E0050C116070EC012C08E24
:04089E00C280120002
:1008A200680E04015C6F040E5D6F720E5E6F040EC3
:1008B2005F6FFF0E506FFF0E516F000E526F000EF2
:1008C200536FFF0E546FFF0E556F000E566F000EE2
:1008D200576FFF0E586FFF0E596F000E5A6F000EC2
:1008E2005B6FAC8A900EAB6E948E949C9EAA03D0E2
:0808F200AECF00F0FBD71200AD
:1008FA000900F5CFE6FF0006FBE10106F9E1120067
:10090A00956A926AFD0E936EFF0E946E9690969279
:06091A009694969612006F
:10092000010E806EEF0E04016025F66E0B0E612144
:10093000F76E000EF86E000E61BFFF0EF822090080
:06094000F5CF83FF120059
:10094600000E231802E1010E22180AE1010E2024EE
:10095600006E000E2120016E00C020F001C021F0C3
:10096600800E040A006E800E2118005C02E1205001
:10097600000806E2206A216A226A236A296A2A6A2C
:0209860012005D
:100988002F6A306A316A326A000E325C08E1000E62
:10099800315C05E1040E305C02E1000E2F5C1CE2C4
:1009A800410E2F24E16E000E3020E26EE66A010E41
:1009B8002F24006E000E3020016E000E3120026ED2
:1009C800000E3220036E00C02FF001C030F002C0CC
:0A09D80031F003C032F0D8D712004E
:0E09E200F18CC00EF212F286F2909D8A120085
:1009F000FDEC05F08ADF43DFC26A84928494849020
:100A00008192B886040EB06EE10EAF6EAC8449DF01
:100A10003D0E0B6EE10E0C6E3F0E0D6E0D2EFED7D1
:100A20000C2EFCD70B2EFAD700000000ADDFD9DF6B
:100A3000F296000E2C1802E1000E2B18D8A4C6D096
:100A4000848284942DB002D0849001D0848033C0FD
:100A500060F434C061F464DF82A416D0000E36184E
:100A600002E1010E351805E1356A366A2D6A2E6AF3
:100A700008D0010E356E000E366E010E2D6E000E82
:100A80002E6E82A401D0FDD7000E1D1802E1010ECA
:100A90001C18D8A47BD084922DB002D0849001D0B1
:100AA00084808484000E2E1802E1000E2D1810E1BF
:100AB00082A00CD0000E1F1802E1000E1E1805E1E6
:100AC00042DF010E1E6E000E1F6E02D01E6A1F6AEC
:100AD000000E2E1802E1010E2D182FE1010E226EDC
:100AE000000E236E82A018D0410E2024016E000E4D
:100AF0002120026E01C0E9FF02C0EAFFEECF00F044
:100B0000002A01C0E1FF02C0E2FF00C0E6FF206A48
:100B1000216A82A001D0FDD7410E2024E96E000E8B
:100B20002120EA6EEECF01F00150FF0A06E1370EF8
:100B3000F216010E256E000E266E000E261802E13A
:100B4000010E251806E140DE1FDF256A266AC80E61
:100B5000F21282A21AD0000E281802E1000E271805
:100B600013E1F2961C6A1D6A010E276E000E286EB4
:100B7000690E0401626FB7DD0D0E0401626FB3DD13
:100B80000A0E0401626FAFDDE4D77ED782A21DD0CA
:100B9000000E281802E1010E271816E16D0E04015F
:100BA000626FA1DD0D0E0401626F9DDD0A0E04016E
:100BB000626F99DD206A216AE7DE010E1C6E000E6D
:0E0BC0001D6E276A286AF286E1D733D7FFD769
:100BFA0010EE1CF0210E006E010E016ECE0EF66E86
:0E0C0A000B0EF76E000EF86E7DEC04F012007B
:020BCE00000025
:020BD000010022
:020BD200000021
:020BD40000001F
:010BD60030EE
:020BD70000001C
:020BD900010019
:020BDB00010017
:020BDD00000016
:020BDF00000014
:040BE1000000000010
:020BE50001000D
:020BE70000000C
:020BE90000000A
:020BEB00000008
:020BED00010005
:0A0BEF003F065B4F666D7D077F6FC8
:020000040030CA
:0E000000010E1F1EFF8381FF0FC00FE00F4097
:00000001FF
