:04000000BAEF05F05E
:1000080000C018F001C017F002C016F003C015F0C8
:10001800E1CF1BF0E2CF1CF0E9CF19F0EACF1AF0DC
:100028009EAA7FD0AECF76F49E9A3850391010E051
:10003800300E0401765D09E37651390806E3300E87
:10004800765D246E256A000E255A386A396A68D0AA
:100058004DD0010E386E000E396E62D004016D0E5F
:10006800786F39EC04F00D0E0401786FFEDB0A0E90
:100078000401786FFADB286A296A78EC04F0010E2B
:10008800326E000E336EF2864BD0326A336AF296C5
:10009800326A336A690E0401786FE7DB0D0E0401DA
:1000A800786FE3DB0A0E0401786FDFDB39D0206A52
:1000B800216A36D0010E206E000E216E31D0020E5C
:1000C800206E000E216E2CD032C077F4D4DB0D0EDA
:1000D8000401786FCADB0A0E0401786FC6DB20D0F2
:1000E800010E3C6E000E3D6E1BD01AD004017651F5
:1000F8006B0AAFE07651670AB1E07651730AC5E042
:100108007651650AD4E07651700AD4E076516F0AC8
:10011800D6E076513F0AD8E07651750AE1E0E5D796
:100128006DD0000E211802E1000E20184BE1000EE0
:100138002B1802E1000E2A180DE1286A296A3A6A8A
:100148003B6A010E306E000E316E010E2A6E000EF3
:100158002B6E27D0010E3A24006E000E3B20016E54
:1001680000C03AF001C03BF03B50251802E1245092
:100178003A1817E1306A316A2A6A2B6A530E282422
:10018800016E000E2920026E01C0E9FF02C0EAFFDD
:10019800EECF00F0002A01C0E1FF02C0E2FF00C07C
:1001A800E6FF530E2824E96E000E2920EA6EEECFF2
:1001B80001F00150FF0A06E1370EF216010E3C6EFF
:1001C800000E3D6E000E211802E1010E201802E11A
:1001D8007FEC05F0000E211802E1020E20180AE15A
:1001E800010E2824006E000E2920016E00C028F0A0
:1001F80001C029F081AE01D0FDD7F29018C000F0FF
:1002080017C001F016C002F015C003F019C0E9FFCD
:0E0218001AC0EAFF1BC0E1FF1CC0E2FF11008C
:10022600086A096A100E0C6E013408360936045045
:10023600085E0550D8A0053C095ED8B007D004502A
:1002460008260550D8B0053C0926D8900036013658
:060256000C2EEAD7120095
:10025C000B6A0A6A096A086A0E6A03340836045083
:10026C00085E0550D8A0053C095E0650D8A0063C97
:10027C000A5E0750D8A0073C0B5EE86AD8A0010EB6
:10028C000E5E0336070E0C6E0334083609360A363A
:10029C000B360E36045003A012D0085E0550D8A0C1
:1002AC00053C095E0650D8A0063C0A5E0750D8A053
:1002BC00073C0B5EE86AD8A0010E0E5E11D0082632
:1002CC000550D8B0053C09260650D8B0063C0A2685
:1002DC000750D8B0073C0B26E86AD8B0010E0E26A2
:1002EC0003360C2ED1D70234083609360A360B36B3
:1002FC000E36045003A012D0085E0550D8A0053C61
:10030C00095E0650D8A0063C0A5E0750D8A0073CF0
:10031C000B5EE86AD8A0010E0E5E11D008260550BF
:10032C00D8B0053C09260650D8B0063C0A26075022
:10033C00D8B0073C0B26E86AD8B0010E0E26023660
:10034C00070E0C6E0234083609360A360B360E369A
:10035C00045002A012D0085E0550D8A0053C095EDE
:10036C000650D8A0063C0A5E0750D8A0073C0B5E8E
:10037C00E86AD8A0010E0E5E11D008260550D8B040
:10038C00053C09260650D8B0063C0A260750D8B0C2
:10039C00073C0B26E86AD8B0010E0E2602360C2E4E
:1003AC00D1D70134083609360A360B360E360450CE
:1003BC0002A012D0085E0550D8A0053C095E06507C
:1003CC00D8A0063C0A5E0750D8A0073C0B5EE86A32
:1003DC00D8A0010E0E5E11D008260550D8B0053CF1
:1003EC0009260650D8B0063C0A260750D8B0073C60
:1003FC000B26E86AD8B0010E0E260136070E0C6EDD
:10040C000134083609360A360B360E36045001A074
:10041C0012D0085E0550D8A0053C095E0650D8A045
:10042C00063C0A5E0750D8A0073C0B5EE86AD8A0D1
:10043C00010E0E5E11D008260550D8B0053C0926D9
:10044C000650D8B0063C0A260750D8B0073C0B26FD
:10045C00E86AD8B0010E0E2601360C2ED1D7003426
:10046C00083609360A360B360E36045001A012D067
:10047C00085E0550D8A0053C095E0650D8A0063C85
:10048C000A5E0750D8A0073C0B5EE86AD8A0010EA4
:10049C000E5E11D008260550D8B0053C0926065032
:1004AC00D8B0063C0A260750D8B0073C0B26E86AA1
:1004BC00D8B0010E0E260036070E0C6E003408362E
:1004CC0009360A360B360E36045000A012D0085EE0
:1004DC000550D8A0053C095E0650D8A0063C0A5E23
:1004EC000750D8A0073C0B5EE86AD8A0010E0E5E40
:1004FC0011D008260550D8B0053C09260650D8B0B6
:10050C00063C0A260750D8B0073C0B26E86AD8B040
:10051C00010E0E2600360C2ED1D700B00ED0045092
:10052C0008260550D8B0053C09260650D8B0063C24
:0C053C000A260750D8B0073C0B2612001E
:0E054800ACB202D00000FCD775C4ADFF1200AB
:1005560004016E6B0B0E6E5D0AE26E516B25E16E49
:10056600000E6C21E26E300EE66E6E2BF3D76E51E6
:100576006B25E16E000E6C21E26EE66A000E006EDF
:100586006A1908E10050691905E10050681902E18D
:100596006751000A01E17CD06D6B800E6A19006E0E
:1005A600800E005C08E1000E695D05E1000E685DE5
:1005B60002E1000E675D0FE2010E6D6F6F6B706BEF
:1005C600716B726B67516F5F6851705B6951715BDC
:1005D6006A51725B08D067C46FF468C470F469C46A
:1005E60071F46AC472F40A0E6E6F000E006E721910
:1005F60008E10050711905E10050701902E16F51D0
:10060600000A3EE06E516B25736F000E6C21746F0D
:100616000A0E046E000E056E066E076E6FC400F0BD
:1006260070C401F071C402F072C403F014DE08C095
:1006360000F009C001F00AC002F00BC003F0300E52
:10064600002673C4E1FF74C4E2FF00C0E6FF6E0734
:100656000A0E046E000E056E066E076E6FC400F07D
:1006660070C401F071C402F072C403F0F4DD00C07E
:100676006FF401C070F402C071F403C072F4B5D710
:100686006D5306E06BC4E1FF6CC4E2FF2D0EE66E0F
:02069600120050
:10069800F250026EF29E0500FF6A0150FE6E005095
:0806A800FD6E02BEF28E12008D
:1006B00004016C6B060E6C5D0AE26C516925E16EFB
:1006C000000E6A21E26E300EE66E6C2BF3D76C5191
:1006D0006925E16E000E6A21E26EE66A000E681975
:1006E00002E1000E671901E152D06B6B800E6819B0
:1006F000006E800E005C02E1000E675D0AE2010EF2
:100700006B6F675100086D6F68C46EF4000E6E5712
:1007100004D067C46DF468C46EF4050E6C6F000EEF
:100720006E1902E1000E6D192AE06C5169256F6F98
:10073000000E6A21706F0A0E046E000E056E6DC405
:1007400000F06EC401F06FDD08C000F009C001F0D8
:10075000300E00266FC4E1FF70C4E2FF00C0E6FF68
:100760006C070A0E046E000E056E6DC400F06EC4B8
:1007700001F059DD00C06DF401C06EF4D0D76B53A9
:1007800006E069C4E1FF6AC4E2FF2D0EE66E1200C6
:1007900065C467F466C468F4440E0401696F000E12
:1007A0006A6F86DF266A276A440E2624E96E000EE9
:1007B0002720EA6EEECF01F00150000A18E0ACB23B
:1007C00001D0FDD7440E2624E96E000E2720EA6EE4
:1007D000EECF00F000C0ADFF010E2624006E000E2B
:1007E0002720016E00C026F001C027F0DDD71200DF
:1007F0005DC4E1FF5EC4E2FF65C4E6FF5BC400F0D8
:080800005CC401F049DF1200A5
:1008080065C467F466C468F4000E040166BFFF0E91
:10081800696F6A6F440E6B6F000E6C6F98DE266A04
:10082800276A440E2624E96E000E2720EA6EEECFD2
:1008380001F00150000A18E0ACB201D0FDD7440E17
:100848002624E96E000E2720EA6EEECF00F000C0E5
:10085800ADFF010E2624006E000E2720016E00C099
:0A08680026F001C027F0DDD71200D2
:0C087200ACB201D0FDD778C4ADFF12007D
:10087E0004017751010A04E16D0E786FF3DF04D0A5
:0A088E00690E0401786FEEDF12001E
:10089800480E04015B6F050E5C6F750E5D6F040EEC
:1008A8005E6FFF0E5F6FFF0E606F000E616F000ED0
:1008B800626FFF0E576FFF0E586F000E596F000ED4
:1008C8005A6FFF0E536FFF0E546F000E556F000ED8
:1008D800566FAC8A900EAB6E948E949C9EAA03D0F1
:0808E800AECF00F0FBD71200B7
:1008F0002C6A2D6A2E6A2F6A000E2F5C08E1000E0A
:100900002E5C05E1040E2D5C02E1000E2C5C1CE265
:10091000530E2C24E16E000E2D20E26EE66A010ECD
:100920002C24006E000E2D20016E000E2E20026E73
:10093000000E2F20036E00C02CF001C02DF002C06D
:0A0940002EF003C02FF0D8D71200EC
:10094A00FF0E406EFF0E416EFF0E426EFF0E436EAB
:10095A00C26A1D1C006E0050C116070EC012C08E5E
:04096A00C280120035
:10096E000900F5CFE6FF0006FBE10106F9E11200F2
:10097E00956A926AFD0E936EFF0E946E9690969205
:06098E00969496961200FB
:10099400770E0401656F2ADF0D0E0401656F26DFF3
:1009A4000A0E0401656F22DF2C6A2D6A2E6A2F6AF3
:1009B400000E2F5C08E1000E2E5C05E1040E2D5C98
:1009C40002E1000E2C5C3DE2530E2C24E96E000E75
:1009D4002D20EA6EEECF01F00150000A1DE02CC07C
:1009E40065F42DC066F40EDF3B0E656FFFDE530E1B
:1009F4002C24E96E000E2D20EA6EEECF00F000C02C
:100A040065F4000E0401666FC1DE0D0E656FEEDE47
:100A14000A0E0401656FEADE010E2C24006E000E3E
:100A24002D20016E000E2E20026E000E2F20036E6C
:100A340000C02CF001C02DF002C02EF003C02FF036
:100A4400B7D7640E0401656FD1DE0D0E0401656F26
:100A5400CDDE0A0E0401656FC9DE6D0E0401656FFB
:100A6400C5DE0D0E0401656FC1DE0A0E0401656F5B
:040A7400BDDE1200D1
:100A7800770E0401656FB8DE0D0E0401656FB4DEF4
:100A88000A0E0401656FB0DE22C065F423C066F467
:100A9800B7DE3B0E656FA8DE28C065F429C066F492
:100AA80073DE0D0E656FA0DE0A0E0401656F9CDE15
:100AB800640E0401656F98DE0D0E0401656F94DE07
:100AC8000A0E0401656F90DE6D0E0401656F8CDE01
:100AD8000D0E0401656F88DE0A0E0401656F84DE61
:100AE800010E2224006E000E2320016E00C022F0A9
:060AF80001C023F0120012
:100AFE00000E311802E1010E30180AE1010E282411
:100B0E00006E000E2920016E00C028F001C029F0F1
:100B1E00800E040A006E800E2918005C02E1285037
:100B2E00000806E2286A296A306A316A2A6A2B6A44
:020B3E001200A3
:0E0B4000F18CC00EF212F286F2909D8A120025
:100B4E00010E806EAD0E04016325F66E0D0E64214E
:100B5E00F76E000EF86E000E64BFFF0EF82209004D
:060B6E00F5CF83FF120029
:100B7400DCEC06F002DFE7DEC26A8492849484909F
:100B84008192B886040EB06EE10EAF6EAC8482DE44
:100B94003D0E0B6EE10E0C6E3F0E0D6E0D2EFED74C
:100BA4000C2EFCD70B2EFAD7000000009FDEC6DF08
:100BB400F296000E1F1802E1000E1E18D8A4E2D00F
:100BC4008482849420B002D0849001D0848024C094
:100BD40063F425C064F4B9DF82A416D0000E37187C
:100BE40002E1010E361805E1366A376A206A216A85
:100BF40008D0010E366E000E376E010E206E000E08
:100C0400216E82A401D0FDD7000E331802E1010E3B
:100C14003218D8A497D0849220B002D0849001D006
:100C240084808484000E211802E1000E201810E153
:100C340082A00CD0000E351802E1000E341805E134
:100C44005CDF010E346E000E356E02D0346A356AF4
:100C5400000E211802E1010E20182FE1010E306E62
:100C6400000E316E82A018D0530E2824016E000E9F
:100C74002920026E01C0E9FF02C0EAFFEECF00F0B6
:100C8400002A01C0E1FF02C0E2FF00C0E6FF286ABB
:100C9400296A82A001D0FDD7530E2824E96E000EE4
:100CA4002920EA6EEECF01F00150FF0A06E1370E6B
:100CB400F216010E3C6E000E3D6E000E211802E18C
:100CC400020E201804E1010E306E000E316E000E8B
:100CD4003D1802E1010E3C1818E1800E006E800EF2
:100CE4002118005C02E12050010802E351DEFEDD20
:100CF400000E211802E1020E201803E1BBDE286A6F
:100D0400296A3C6A3D6AC80EF21282A21AD0000E09
:100D14003F1802E1000E3E1813E1010E3E6E000E74
:100D24003F6EF296326A336A690E0401656F5EDDC6
:100D34000D0E0401656F5ADD0A0E0401656F56DD60
:100D4400E4D762D782A21DD0000E3F1802E1010E43
:100D54003E1816E16D0E0401656F48DD0D0E0401A9
:100D6400656F44DD0A0E0401656F40DD286A296A57
:100D7400BDDD010E326E000E336EF2863E6A3F6AAE
:060D8400E1D717D7FFD7ED
:100DB80010EE1DF0230E006E010E016E8A0EF66E07
:0E0DC8000D0EF76E000EF86EB7EC04F0120080
:010D8A003038
:020D8B00000066
:020D8D00000064
:020D8F00000062
:020D910001005F
:020D930000005E
:020D950000005C
:020D9700010059
:040D99000000000056
:020D9D00000054
:020D9F00000052
:020DA10001004F
:020DA30000004E
:020DA50001004B
:020DA70000004A
:020DA900000048
:020DAB00010045
:0A0DAD003F065B4F666D7D077F6F08
:020000040030CA
:0E000000010E1F1EFF8381FF0FC00FE00F4097
:00000001FF
