:040000009AEF05F07E
:1000080000C018F001C017F002C016F003C015F0C8
:10001800E1CF1BF0E2CF1CF0E9CF19F0EACF1AF0DC
:100028009EAA85D0AECF6BF49E9A2D502E1010E06C
:10003800300E04016B5D09E36B51390806E3300E9D
:100048006B5D316E326A000E325A2D6A2E6A6ED09E
:1000580050D0010E2D6E000E2E6E68D004016D0E6C
:100068006D6FFDDB0D0E04016D6FF9DB0A0E0401E7
:100078006D6FF5DB2B6A2C6A90EC04F0010E356E7F
:10008800000E366EF28652D0356A366AF296356AB6
:10009800366A690E04016D6FE2DB0D0E04016D6FA7
:1000A800DEDB0A0E04016D6FDADB40D01D6A1E6AC2
:1000B8003DD0010E1D6E000E1E6E38D0020E1D6E54
:1000C800000E1E6E33D035C06CF47BEC04F00D0EC0
:1000D80004016D6FC4DB0A0E04016D6FC0DB26D00E
:1000E800010E236E000E246E21D0256A266A1ED0CA
:1000F8001DD004016B516B0AACE06B51670AAEE08E
:100108006B51730AC1E06B51650AD0E06B51700AFC
:10011800D0E06B516F0AD2E06B513F0AD4E06B51CB
:10012800750ADEE06B51720AE0E0E2D76DD0000E8E
:100138001E1802E1000E1D184BE1000E201802E106
:10014800000E1F180DE12B6A2C6A2F6A306A010E07
:10015800276E000E286E010E1F6E000E206E27D02F
:10016800010E2F24006E000E3020016E00C02FF00B
:1001780001C030F03050321802E131502F1817E129
:10018800276A286A1F6A206A3B0E2B24016E000E1C
:100198002C20026E01C0E9FF02C0EAFFEECF00F09A
:1001A800002A01C0E1FF02C0E2FF00C0E6FF3B0EEB
:1001B8002B24E96E000E2C20EA6EEECF01F00150E0
:1001C800FF0A06E1370EF216010E236E000E246EAA
:1001D800000E1E1802E1010E1D1802E179EC05F06F
:1001E800000E1E1802E1020E1D180AE1010E2B2452
:1001F800006E000E2C20016E00C02BF001C02CF008
:1002080081AE01D0FDD7F29018C000F017C001F000
:1002180016C002F015C003F019C0E9FF1AC0EAFFC2
:0A0228001BC0E1FF1CC0E2FF110043
:100232000B6A0A6A096A086A0E6A033408360450AD
:10024200085E0550D8A0053C095E0650D8A0063CC1
:100252000A5E0750D8A0073C0B5EE86AD8A0010EE0
:100262000E5E0336070E0C6E0334083609360A3664
:100272000B360E36045003A012D0085E0550D8A0EB
:10028200053C095E0650D8A0063C0A5E0750D8A07D
:10029200073C0B5EE86AD8A0010E0E5E11D008265C
:1002A2000550D8B0053C09260650D8B0063C0A26AF
:1002B2000750D8B0073C0B26E86AD8B0010E0E26CC
:1002C20003360C2ED1D70234083609360A360B36DD
:1002D2000E36045003A012D0085E0550D8A0053C8B
:1002E200095E0650D8A0063C0A5E0750D8A0073C1B
:1002F2000B5EE86AD8A0010E0E5E11D008260550EA
:10030200D8B0053C09260650D8B0063C0A2607504C
:10031200D8B0073C0B26E86AD8B0010E0E2602368A
:10032200070E0C6E0234083609360A360B360E36C4
:10033200045002A012D0085E0550D8A0053C095E08
:100342000650D8A0063C0A5E0750D8A0073C0B5EB8
:10035200E86AD8A0010E0E5E11D008260550D8B06A
:10036200053C09260650D8B0063C0A260750D8B0EC
:10037200073C0B26E86AD8B0010E0E2602360C2E78
:10038200D1D70134083609360A360B360E360450F8
:1003920002A012D0085E0550D8A0053C095E0650A6
:1003A200D8A0063C0A5E0750D8A0073C0B5EE86A5C
:1003B200D8A0010E0E5E11D008260550D8B0053C1B
:1003C20009260650D8B0063C0A260750D8B0073C8A
:1003D2000B26E86AD8B0010E0E260136070E0C6E07
:1003E2000134083609360A360B360E36045001A09F
:1003F20012D0085E0550D8A0053C095E0650D8A070
:10040200063C0A5E0750D8A0073C0B5EE86AD8A0FB
:10041200010E0E5E11D008260550D8B0053C092603
:100422000650D8B0063C0A260750D8B0073C0B2627
:10043200E86AD8B0010E0E2601360C2ED1D7003450
:10044200083609360A360B360E36045001A012D091
:10045200085E0550D8A0053C095E0650D8A0063CAF
:100462000A5E0750D8A0073C0B5EE86AD8A0010ECE
:100472000E5E11D008260550D8B0053C092606505C
:10048200D8B0063C0A260750D8B0073C0B26E86ACB
:10049200D8B0010E0E260036070E0C6E0034083658
:1004A20009360A360B360E36045000A012D0085E0A
:1004B2000550D8A0053C095E0650D8A0063C0A5E4D
:1004C2000750D8A0073C0B5EE86AD8A0010E0E5E6A
:1004D20011D008260550D8B0053C09260650D8B0E0
:1004E200063C0A260750D8B0073C0B26E86AD8B06B
:1004F200010E0E2600360C2ED1D700B00ED00450BD
:1005020008260550D8B0053C09260650D8B0063C4E
:0C0512000A260750D8B0073C0B26120048
:0E051E00ACB202D00000FCD76AC4ADFF1200E0
:10052C00086A096A100E0C6E01340836093604503C
:10053C00085E0550D8A0053C095ED8B007D0045021
:10054C0008260550D8B0053C0926D890003601364F
:06055C000C2EEAD712008C
:10056200F250026EF29E0500FF6A0150FE6E0050CC
:08057200FD6E02BEF28E1200C4
:10057A000401636B0B0E635D0AE263516025E16E51
:10058A00000E6121E26E300EE66E632BF3D76351E3
:10059A006025E16E000E6121E26EE66A000E006ED1
:1005AA005F1908E100505E1905E100505D1902E18A
:1005BA005C51000A01E17CD0626B800E5F19006E0B
:1005CA00800E005C08E1000E5E5D05E1000E5D5DD7
:1005DA0002E1000E5C5D0FE2010E626F646B656BF7
:1005EA00666B676B5C51645F5D51655B5E51665B10
:1005FA005F51675B08D05CC464F45DC465F45EC493
:10060A0066F45FC467F40A0E636F000E006E671922
:10061A0008E10050661905E10050651902E16451CC
:10062A00000A3EE063516025686F000E6121696F20
:10063A000A0E046E000E056E066E076E64C400F0A4
:10064A0065C401F066C402F067C403F0EDDD08C0BA
:10065A0000F009C001F00AC002F00BC003F0300E2E
:10066A00002668C4E1FF69C4E2FF00C0E6FF630731
:10067A000A0E046E000E056E066E076E64C400F064
:10068A0065C401F066C402F067C403F0CDDD00C0A2
:10069A0064F401C065F402C066F403C067F4B5D718
:1006AA00625306E060C4E1FF61C4E2FF2D0EE66E0C
:0206BA0012002C
:1006BC000401616B060E615D0AE261515E25E16E1B
:1006CC00000E5F21E26E300EE66E612BF3D76151A6
:1006DC005E25E16E000E5F21E26EE66A000E5D198A
:1006EC0002E1000E5C1901E152D0606B800E5D19C5
:1006FC00006E800E005C02E1000E5C5D0AE2010EF1
:10070C00606F5C510008626F5DC463F4000E635748
:10071C0004D05CC462F45DC463F4050E616F000E1A
:10072C00631902E1000E62192AE061515E25646FC3
:10073C00000E5F21656F0A0E046E000E056E62C41A
:10074C0000F063C401F0ECDE08C000F009C001F059
:10075C00300E002664C4E1FF65C4E2FF00C0E6FF72
:10076C0061070A0E046E000E056E62C400F063C4CD
:10077C0001F0D6DE00C062F401C063F4D0D7605340
:10078C0006E05EC4E1FF5FC4E2FF2D0EE66E1200D0
:10079C005AC45CF45BC45DF43B0E04015E6F040E42
:1007AC005F6F86DF296A2A6A3B0E2924E96E040EE4
:1007BC002A20EA6EEECF01F00150000A18E0ACB22C
:1007CC0001D0FDD73B0E2924E96E040E2A20EA6ED7
:1007DC00EECF00F000C0ADFF010E2924006E000E1C
:1007EC002A20016E00C029F001C02AF0DDD71200CA
:1007FC005AC45CF45BC45DF4000E04015BBFFF0ED5
:10080C005E6F5F6F3B0E606F040E616FB0DE296A26
:10081C002A6A3B0E2924E96E040E2A20EA6EEECFDA
:10082C0001F00150000A18E0ACB201D0FDD73B0E2C
:10083C002924E96E040E2A20EA6EEECF00F000C0E7
:10084C00ADFF010E2924006E000E2A20016E00C09F
:0A085C0029F001C02AF0DDD71200D8
:0C086600ACB201D0FDD76DC4ADFF120094
:1008720058C4E1FF59C4E2FF5AC4E6FF56C400F06F
:0808820057C401F06DDE120005
:10088A00926AFD0E936EFF0E946E969096929694CF
:04089A00969612001C
:10089E001E0E0401566F050E576F6A0E586F040E2A
:1008AE00596FFF0E526FFF0E536F000E546F000EF6
:1008BE00556FFF0E4E6FFF0E4F6F000E506F000EF6
:1008CE00516FFF0E4A6FFF0E4B6F000E4C6F000EF6
:1008DE004D6FAC8A900EAB6E948E949C9EAA03D0F4
:0808EE00AECF00F0FBD71200B1
:1008F60004016C51010A04E16D0E6D6FB1DF04D085
:0A090600690E04016D6FACDF1200F2
:100910000900F5CFE6FF0006FBE10106F9E1120050
:10092000376A386A396A3A6A000E3A5C08E1000EA2
:10093000395C05E1040E385C02E1000E375C1CE214
:100940003B0E3724E16E000E3820E26EE66A010E9F
:100950003724006E000E3820016E000E3920026E22
:10096000000E3A20036E00C037F001C038F002C01C
:0A09700039F003C03AF0D8D71200A6
:10097A00770E04015A6F78DF0D0E04015A6F74DF87
:10098A000A0E04015A6F70DF376A386A396A3A6A9E
:10099A00000E3A5C08E1000E395C05E1040E385C91
:1009AA0002E1000E375C3DE23B0E3724E96E000E91
:1009BA003820EA6EEECF01F00150000A1DE037C080
:1009CA005AF438C05BF415DF3B0E5A6F4DDF3B0E0D
:1009DA003724E96E000E3820EA6EEECF00F000C030
:1009EA005AF4000E04015B6FD4DE0D0E5A6F3CDF21
:1009FA000A0E04015A6F38DF010E3724006E000E0A
:100A0A003820016E000E3920026E000E3A20036E65
:100A1A0000C037F001C038F002C039F003C03AF024
:100A2A00B7D7640E04015A6F1FDF0D0E04015A6F07
:100A3A001BDF0A0E04015A6F17DF6D0E04015A6F8D
:100A4A0013DF0D0E04015A6F0FDF0A0E04015A6FED
:040A5A000BDF12009C
:100A5E00770E04015A6F06DF0D0E04015A6F02DF86
:100A6E000A0E04015A6FFEDE25C05AF426C05BF44E
:100A7E00BEDE3B0E5A6FF6DE2BC05AF42CC05BF472
:100A8E0086DE0D0E5A6FEEDE0A0E04015A6FEADE96
:100A9E00640E04015A6FE6DE0D0E04015A6FE2DE9B
:100AAE000A0E04015A6FDEDE6D0E04015A6FDADE95
:100ABE000D0E04015A6FD6DE0A0E04015A6FD2DEF5
:100ACE00010E2524006E000E2620016E00C025F0BA
:060ADE0001C026F0120029
:0E0AE400F18CC00EF212F286F2909D8A120082
:100AF200000E281802E1010E27180AE1010E2B242C
:100B0200006E000E2C20016E00C02BF001C02CF0F4
:100B1200800E040A006E800E2C18005C02E12B503D
:100B2200000806E22B6A2C6A276A286A1F6A206A72
:020B32001200AF
:100B34004DEC06F0A8DEC26A84928494849081927B
:100B4400B886040EB06EE10EAF6EAC84A6DE3D0E28
:100B54000B6EE10E0C6E3F0E0D6E0D2EFED70C2E9D
:100B6400FCD70B2EFAD700000000D8DEB9DFF296CE
:100B7400000E341802E1000E3318D8A47CD0000E05
:100B8400361802E1010E3518D8A474D0000E1E18D0
:100B940002E1000E1D1810E182A00CD0000E2218F4
:100BA40002E1000E211805E1A2DF010E216E000E04
:100BB400226E02D0216A226A000E1E1802E1010E82
:100BC4001D182FE1010E276E000E286E82A018D08A
:100BD4003B0E2B24016E000E2C20026E01C0E9FF97
:100BE40002C0EAFFEECF00F0002A01C0E1FF02C01C
:100BF400E2FF00C0E6FF2B6A2C6A82A001D0FDD779
:100C04003B0E2B24E96E000E2C20EA6EEECF01F091
:100C14000150FF0A06E1370EF216010E236E000E94
:100C2400246E000E1E1802E1020E1D1804E1010ECE
:100C3400276E000E286E000E241802E1010E231800
:100C440018E1800E006E800E1E18005C02E11D503B
:100C5400010802E390DE62DE000E1E1802E1020EBD
:100C64001D1803E1FADE2B6A2C6A236A246AC80E73
:080C7400F21285D77DD7FFD7EE
:100C9A0010EE1DF01E0E006E010E016E7C0EF66E39
:0E0CAA000C0EF76E000EF86E88EC04F01200CF
:020C7C00000076
:020C7E00010073
:020C8000010071
:020C8200000070
:020C840000006E
:020C860000006C
:020C880000006A
:020C8A00000068
:020C8C00010065
:020C8E00000064
:020C9000010061
:020C9200000060
:020C940000005E
:040C9600000000005A
:020000040030CA
:0E000000010E1F1EFF8381FF0FC00FE00F4097
:00000001FF
