:040000004CEF05F0CC
:1000080000C018F001C017F002C016F003C015F0C8
:10001800E1CF1BF0E2CF1CF0E9CF19F0EACF1AF0DC
:100028009EAA65D0AECF74F49E9A3C503D1010E065
:10003800300E0401745D09E37451390806E3300E8B
:10004800745D346E356A000E355A3C6A3D6A4ED08E
:1000580039D0010E3C6E000E3D6E48D004016D0E85
:10006800766FA8DB0D0E0401766FA4DB0A0E04017F
:10007800766FA0DB216A226A18EC05F0010E1D6E6E
:10008800000E1E6EF28632D01D6A1E6AF2961D6A36
:100098001E6A690E0401766F8DDB0D0E0401766F02
:1000A80089DB0A0E0401766F85DB20D02E6A2F6A61
:1000B8001DD0010E2E6E000E2F6E18D01DC075F4C7
:1000C800F8DB14D0040174516B0AC3E07451670A59
:1000D800C5E07451730AD8E07451650AE7E07451B9
:1000E800700AE7E074513F0AE9E0EBD75CD0000EF4
:1000F8002F1802E1000E2E184BE1000E2B1802E11A
:10010800000E2A180DE1216A226A3A6A3B6A010E3A
:10011800236E000E246E010E2A6E000E2B6E27D061
:10012800010E3A24006E000E3B20016E00C03AF02A
:1001380001C03BF03B50351802E134503A1817E142
:10014800236A246A2A6A2B6A420E2124016E000E51
:100158002220026E01C0E9FF02C0EAFFEECF00F0E4
:10016800002A01C0E1FF02C0E2FF00C0E6FF420E24
:100178002124E96E000E2220EA6EEECF01F0015034
:10018800040A06E1370EF216010E266E000E276EDF
:10019800000E2F1802E1010E2E1801E19FDB81AE3F
:1001A80001D0FDD7F29018C000F017C001F016C0BA
:1001B80002F015C003F019C0E9FF1AC0EAFF1BC01E
:0801C800E1FF1CC0E2FF110081
:0E01D000ACB202D00000FCD773C4ADFF120029
:1001DE000B6A0A6A096A086A0E6A03340836045002
:1001EE00085E0550D8A0053C095E0650D8A0063C16
:1001FE000A5E0750D8A0073C0B5EE86AD8A0010E35
:10020E000E5E0336070E0C6E0334083609360A36B8
:10021E000B360E36045003A012D0085E0550D8A03F
:10022E00053C095E0650D8A0063C0A5E0750D8A0D1
:10023E00073C0B5EE86AD8A0010E0E5E11D00826B0
:10024E000550D8B0053C09260650D8B0063C0A2603
:10025E000750D8B0073C0B26E86AD8B0010E0E2620
:10026E0003360C2ED1D70234083609360A360B3631
:10027E000E36045003A012D0085E0550D8A0053CDF
:10028E00095E0650D8A0063C0A5E0750D8A0073C6F
:10029E000B5EE86AD8A0010E0E5E11D0082605503E
:1002AE00D8B0053C09260650D8B0063C0A260750A1
:1002BE00D8B0073C0B26E86AD8B0010E0E260236DF
:1002CE00070E0C6E0234083609360A360B360E3619
:1002DE00045002A012D0085E0550D8A0053C095E5D
:1002EE000650D8A0063C0A5E0750D8A0073C0B5E0D
:1002FE00E86AD8A0010E0E5E11D008260550D8B0BF
:10030E00053C09260650D8B0063C0A260750D8B040
:10031E00073C0B26E86AD8B0010E0E2602360C2ECC
:10032E00D1D70134083609360A360B360E3604504C
:10033E0002A012D0085E0550D8A0053C095E0650FA
:10034E00D8A0063C0A5E0750D8A0073C0B5EE86AB0
:10035E00D8A0010E0E5E11D008260550D8B0053C6F
:10036E0009260650D8B0063C0A260750D8B0073CDE
:10037E000B26E86AD8B0010E0E260136070E0C6E5B
:10038E000134083609360A360B360E36045001A0F3
:10039E0012D0085E0550D8A0053C095E0650D8A0C4
:1003AE00063C0A5E0750D8A0073C0B5EE86AD8A050
:1003BE00010E0E5E11D008260550D8B0053C092658
:1003CE000650D8B0063C0A260750D8B0073C0B267C
:1003DE00E86AD8B0010E0E2601360C2ED1D70034A5
:1003EE00083609360A360B360E36045001A012D0E6
:1003FE00085E0550D8A0053C095E0650D8A0063C04
:10040E000A5E0750D8A0073C0B5EE86AD8A0010E22
:10041E000E5E11D008260550D8B0053C09260650B0
:10042E00D8B0063C0A260750D8B0073C0B26E86A1F
:10043E00D8B0010E0E260036070E0C6E00340836AC
:10044E0009360A360B360E36045000A012D0085E5E
:10045E000550D8A0053C095E0650D8A0063C0A5EA1
:10046E000750D8A0073C0B5EE86AD8A0010E0E5EBE
:10047E0011D008260550D8B0053C09260650D8B034
:10048E00063C0A260750D8B0073C0B26E86AD8B0BF
:10049E00010E0E2600360C2ED1D700B00ED0045011
:1004AE0008260550D8B0053C09260650D8B0063CA3
:0C04BE000A260750D8B0073C0B2612009D
:1004CA00086A096A100E0C6E01340836093604509F
:1004DA00085E0550D8A0053C095ED8B007D0045084
:1004EA0008260550D8B0053C0926D89000360136B2
:0604FA000C2EEAD71200EF
:1005000004016C6B0B0E6C5D0AE26C516925E16EA7
:10051000000E6A21E26E300EE66E6C2BF3D76C5142
:100520006925E16E000E6A21E26EE66A000E006E39
:10053000681908E10050671905E10050661902E1E9
:100540006551000A01E17CD06B6B800E6819006E6A
:10055000800E005C08E1000E675D05E1000E665D3F
:1005600002E1000E655D0FE2010E6B6F6D6B6E6B4D
:100570006F6B706B65516D5F66516E5B67516F5B42
:100580006851705B08D065C46DF466C46EF467C4CE
:100590006FF468C470F40A0E6C6F000E006E701970
:1005A00008E100506F1905E100506E1902E16D512C
:1005B000000A3EE06C516925716F000E6A21726F6E
:1005C0000A0E046E000E056E066E076E6DC400F016
:1005D0006EC401F06FC402F070C403F000DE08C006
:1005E00000F009C001F00AC002F00BC003F0300EA9
:1005F000002671C4E1FF72C4E2FF00C0E6FF6C0791
:100600000A0E046E000E056E066E076E6DC400F0D5
:100610006EC401F06FC402F070C403F0E0DD00C0EE
:100620006DF401C06EF402C06FF403C070F4B5D76E
:100630006B5306E069C4E1FF6AC4E2FF2D0EE66E6B
:020640001200A6
:10064200F250026EF29E0500FF6A0150FE6E0050EB
:08065200FD6E02BEF28E1200E3
:10065A0004016A6B060E6A5D0AE26A516725E16E59
:10066A00000E6821E26E300EE66E6A2BF3D76A51ED
:10067A006725E16E000E6821E26EE66A000E6619D1
:10068A0002E1000E651901E152D0696B800E66190C
:10069A00006E800E005C02E1000E655D0AE2010E4A
:1006AA00696F655100086B6F66C46CF4000E6C5775
:1006BA0004D065C46BF466C46CF4050E6A6F000E50
:1006CA006C1902E1000E6B192AE06A5167256D6FF9
:1006DA00000E68216E6F0A0E046E000E056E6BC462
:1006EA0000F06CC401F0ECDE08C000F009C001F0B3
:1006FA00300E00266DC4E1FF6EC4E2FF00C0E6FFC3
:10070A006A070A0E046E000E056E6BC400F06CC414
:10071A0001F0D6DE00C06BF401C06CF4D0D7695387
:10072A0006E067C4E1FF68C4E2FF2D0EE66E120020
:10073A0063C465F464C466F4000E040164BFFF0E6A
:10074A00676F686F420E696F040E6A6FD4DE386A8B
:10075A00396A420E3824E96E040E3920EA6EEECF69
:10076A0001F00150000A18E0ACB201D0FDD7420EE8
:10077A003824E96E040E3920EA6EEECF00F000C08C
:10078A00ADFF010E3824006E000E3920016E00C044
:0A079A0038F001C039F0DDD712007D
:1007A4005FC4E1FF60C4E2FF63C4E6FF5DC400F020
:0807B4005EC401F044DF1200F5
:0C07BC00ACB201D0FDD776C4ADFF120036
:1007C80063C465F464C466F4420E0401676F040EE2
:1007D800686F3FDF386A396A420E3824E96E040EC2
:1007E8003920EA6EEECF01F00150000A18E0ACB2F1
:1007F80001D0FDD7420E3824E96E040E3920EA6E86
:10080800EECF00F000C0ADFF010E3824006E000EE0
:100818003920016E00C038F001C039F0DDD7120070
:10082800FF0E3E6EFF0E3F6EFF0E406EFF0E416ED6
:10083800C26A251C006E0050C116070EC012C08E79
:04084800C280120058
:10084C00D00E04015D6F010E5E6F730E5F6F040EB0
:10085C00606FFF0E516FFF0E526F000E536F000E44
:10086C00546FFF0E556FFF0E566F000E576F000E34
:10087C00586FFF0E596FFF0E5A6F000E5B6F000E14
:10088C005C6FAC8A900EAB6E948E949C9EAA03D037
:08089C00AECF00F0FBD7120003
:1008A400956A926AFD0E936EFF0E946E96909692E0
:0608B400969496961200D6
:1008BA0004017551010A04E16D0E766F7ADF04D0E6
:0A08CA00690E0401766F75DF12005D
:1008D4000900F5CFE6FF0006FBE10106F9E112008D
:1008E400000E241802E1010E23180AE1010E21244E
:1008F400006E000E2220016E00C021F001C022F023
:10090400800E040A006E800E2218005C02E1215061
:10091400000806E2216A226A236A246A2A6A2B6A88
:020924001200BF
:10092600770E0401636F3BDF0D0E0401636F37DF43
:100936000A0E0401636F33DF306A316A326A336A42
:10094600000E335C08E1000E325C05E1040E315CFA
:1009560002E1000E305C3DE2420E3024E96E000EEC
:100966003120EA6EEECF01F00150000A1DE030C0E2
:1009760063F431C064F4DEDE3B0E636F10DF420EBB
:100986003024E96E000E3120EA6EEECF00F000C092
:1009960063F4000E0401646F14DF0D0E636FFFDE57
:1009A6000A0E0401636FFBDE010E3024006E000E9A
:1009B6003120016E000E3220026E000E3320036ECF
:1009C60000C030F001C031F002C032F003C033F095
:1009D600B7D7640E0401636FE2DE0D0E0401636F88
:1009E600DEDE0A0E0401636FDADE6D0E0401636F4C
:1009F600D6DE0D0E0401636FD2DE0A0E0401636FAC
:040A0600CEDE12002E
:100A0A00010E806E970E04016125F66E0C0E6221AE
:100A1A00F76E000EF86E000E62BFFF0EF822090094
:060A2A00F5CF83FF12006E
:100A3000306A316A326A336A000E335C08E1000EB4
:100A4000325C05E1040E315C02E1000E305C1CE218
:100A5000420E3024E16E000E3120E26EE66A010E95
:100A60003024006E000E3120016E000E3220026E26
:100A7000000E3320036E00C030F001C031F002C020
:0A0A800032F003C033F0D8D71200A3
:0E0A8A00F18CC00EF212F286F2909D8A1200DC
:100A980051EC06F003DFC4DEC26A84928494849029
:100AA8008192B886040EB06EE10EAF6EAC84CADED9
:100AB8003D0E0B6EE10E0C6E3F0E0D6E0D2EFED729
:100AC8000C2EFCD70B2EFAD700000000ADDFD9DFC3
:100AD800F296000E2D1802E1000E2C18D8A4C6D0EC
:100AE800848284942EB002D0849001D0848034C053
:100AF80061F435C062F485DF82A416D0000E371881
:100B080002E1010E361805E1366A376A2E6A2F6A45
:100B180008D0010E366E000E376E010E2E6E000ED6
:100B28002F6E82A401D0FDD7000E1E1802E1010E1F
:100B38001D18D8A47BD084922EB002D0849001D006
:100B480084808484000E2F1802E1000E2E1810E114
:100B580082A00CD0000E201802E1000E1F1805E13B
:100B6800BDDE010E1F6E000E206E02D01F6A206AC5
:100B7800000E2F1802E1010E2E182FE1010E236E30
:100B8800000E246E82A018D0420E2124016E000EA1
:100B98002220026E01C0E9FF02C0EAFFEECF00F09A
:100BA800002A01C0E1FF02C0E2FF00C0E6FF216A9F
:100BB800226A82A001D0FDD7420E2124E96E000EE0
:100BC8002220EA6EEECF01F00150040A06E1370E4A
:100BD800F216010E266E000E276E000E271802E18F
:100BE800010E261806E19BDE1FDF266A276AC80E5B
:100BF800F21282A21AD0000E291802E1000E28185B
:100C080013E1010E286E000E296EF2961D6A1E6A07
:100C1800690E0401636FC2DD0D0E0401636FBEDD52
:100C28000A0E0401636FBADDE4D77ED782A21DD015
:100C3800000E291802E1010E281816E16D0E0401B4
:100C4800636FACDD0D0E0401636FA8DD0A0E0401AD
:100C5800636FA4DD216A226AE7DE010E1D6E000EB5
:0E0C68001E6EF286286A296AE1D733D7FFD7BD
:100CA20010EE1DF0210E006E010E016E760EF66E34
:0E0CB2000C0EF76E000EF86E6AEC04F01200E5
:020C760000007C
:020C7800010079
:020C7A00000078
:020C7C00000076
:010C7E003045
:020C7F00000073
:020C8100010070
:020C830001006E
:020C850000006D
:020C870000006B
:040C89000000000067
:020C8D00010064
:020C8F00000063
:020C9100000061
:020C930000005F
:020C950001005C
:0A0C97003F065B4F666D7D077F6F1F
:020000040030CA
:0E000000010E1F1EFF8381FF0FC00FE00F4097
:00000001FF
