:04000000DDEF04F03C
:1000080000C017F001C016F002C015F0E1CF1AF0D9
:10001800E2CF1BF0E9CF18F0EACF19F0000E38183C
:1000280002E1000E37184BE1000E341802E1000E11
:1000380033180DE1296A2A6A396A3A6A010E206E74
:10004800000E216E010E336E000E346E27D0010EA5
:100058003924006E000E3A20016E00C039F001C04C
:100068003AF03A50321802E13150391817E1206A53
:10007800216A336A346A4E0E2924016E000E2A2042
:10008800026E01C0E9FF02C0EAFFEECF00F0002ACD
:1000980001C0E1FF02C0E2FF00C0E6FF4E0E2924C6
:1000A800E96E000E2A20EA6EEECF01F00150040A34
:1000B80006E1370EF216010E256E000E266E000EB2
:1000C800381802E1010E371802E197EC04F081AE0E
:1000D80001D0FDD7F29017C000F016C001F015C08E
:1000E80002F018C0E9FF19C0EAFF1AC0E1FF1BC0FF
:0400F800E2FF110012
:1000FC000B6A0A6A096A086A0E6A033408360450E5
:10010C00085E0550D8A0053C095E0650D8A0063CF8
:10011C000A5E0750D8A0073C0B5EE86AD8A0010E17
:10012C000E5E0336070E0C6E0334083609360A369B
:10013C000B360E36045003A012D0085E0550D8A022
:10014C00053C095E0650D8A0063C0A5E0750D8A0B4
:10015C00073C0B5EE86AD8A0010E0E5E11D0082693
:10016C000550D8B0053C09260650D8B0063C0A26E6
:10017C000750D8B0073C0B26E86AD8B0010E0E2603
:10018C0003360C2ED1D70234083609360A360B3614
:10019C000E36045003A012D0085E0550D8A0053CC2
:1001AC00095E0650D8A0063C0A5E0750D8A0073C52
:1001BC000B5EE86AD8A0010E0E5E11D00826055021
:1001CC00D8B0053C09260650D8B0063C0A26075084
:1001DC00D8B0073C0B26E86AD8B0010E0E260236C2
:1001EC00070E0C6E0234083609360A360B360E36FC
:1001FC00045002A012D0085E0550D8A0053C095E40
:10020C000650D8A0063C0A5E0750D8A0073C0B5EEF
:10021C00E86AD8A0010E0E5E11D008260550D8B0A1
:10022C00053C09260650D8B0063C0A260750D8B023
:10023C00073C0B26E86AD8B0010E0E2602360C2EAF
:10024C00D1D70134083609360A360B360E3604502F
:10025C0002A012D0085E0550D8A0053C095E0650DD
:10026C00D8A0063C0A5E0750D8A0073C0B5EE86A93
:10027C00D8A0010E0E5E11D008260550D8B0053C52
:10028C0009260650D8B0063C0A260750D8B0073CC1
:10029C000B26E86AD8B0010E0E260136070E0C6E3E
:1002AC000134083609360A360B360E36045001A0D6
:1002BC0012D0085E0550D8A0053C095E0650D8A0A7
:1002CC00063C0A5E0750D8A0073C0B5EE86AD8A033
:1002DC00010E0E5E11D008260550D8B0053C09263B
:1002EC000650D8B0063C0A260750D8B0073C0B265F
:1002FC00E86AD8B0010E0E2601360C2ED1D7003488
:10030C00083609360A360B360E36045001A012D0C8
:10031C00085E0550D8A0053C095E0650D8A0063CE6
:10032C000A5E0750D8A0073C0B5EE86AD8A0010E05
:10033C000E5E11D008260550D8B0053C0926065093
:10034C00D8B0063C0A260750D8B0073C0B26E86A02
:10035C00D8B0010E0E260036070E0C6E003408368F
:10036C0009360A360B360E36045000A012D0085E41
:10037C000550D8A0053C095E0650D8A0063C0A5E84
:10038C000750D8A0073C0B5EE86AD8A0010E0E5EA1
:10039C0011D008260550D8B0053C09260650D8B017
:1003AC00063C0A260750D8B0073C0B26E86AD8B0A2
:1003BC00010E0E2600360C2ED1D700B00ED00450F4
:1003CC0008260550D8B0053C09260650D8B0063C86
:0C03DC000A260750D8B0073C0B26120080
:0E03E800ACB202D00000FCD770C4ADFF120012
:1003F600086A096A100E0C6E013408360936045074
:10040600085E0550D8A0053C095ED8B007D0045058
:1004160008260550D8B0053C0926D8900036013686
:060426000C2EEAD71200C3
:10042C00F250026EF29E0500FF6A0150FE6E005003
:08043C00FD6E02BEF28E1200FB
:100444000401696B0B0E695D0AE269516625E16E70
:10045400000E6721E26E300EE66E692BF3D7695108
:100464006625E16E000E6721E26EE66A000E006EFC
:10047400651908E10050641905E10050631902E1AF
:100484006251000A01E17CD0686B800E6519006E30
:10049400800E005C08E1000E645D05E1000E635D02
:1004A40002E1000E625D0FE2010E686F6A6B6B6B16
:1004B4006C6B6D6B62516A5F63516B5B64516C5B17
:1004C40065516D5B08D062C46AF463C46BF464C4A0
:1004D4006CF465C46DF40A0E696F000E006E6D193C
:1004E40008E100506C1905E100506B1902E16A51F2
:1004F400000A3EE0695166256E6F000E67216F6F3A
:100504000A0E046E000E056E066E076E6AC400F0D5
:100514006BC401F06CC402F06DC403F0EDDD08C0DF
:1005240000F009C001F00AC002F00BC003F0300E65
:1005340000266EC4E1FF6FC4E2FF00C0E6FF690756
:100544000A0E046E000E056E066E076E6AC400F095
:100554006BC401F06CC402F06DC403F0CDDD00C0C7
:100564006AF401C06BF402C06CF403C06DF4B5D737
:10057400685306E066C4E1FF67C4E2FF2D0EE66E31
:02058400120063
:100586000401676B060E675D0AE267516425E16E3A
:10059600000E6521E26E300EE66E672BF3D76751CB
:1005A6006425E16E000E6521E26EE66A000E6319AF
:1005B60002E1000E621901E152D0666B800E6319EA
:1005C600006E800E005C02E1000E625D0AE2010E22
:1005D600666F62510008686F63C469F4000E69575C
:1005E60004D062C468F463C469F4050E676F000E34
:1005F600691902E1000E68192AE0675164256A6FDD
:10060600000E65216B6F0A0E046E000E056E68C43F
:1006160000F069C401F0ECDE08C000F009C001F08A
:10062600300E00266AC4E1FF6BC4E2FF00C0E6FF9D
:1006360067070A0E046E000E056E68C400F069C4F2
:1006460001F0D6DE00C068F401C069F4D0D7665365
:1006560006E064C4E1FF65C4E2FF2D0EE66E1200FB
:0E066600570E0D6E0D2EFED700000000120084
:1006740050C4E1FF51C4E2FF60C4E6FF4EC400F081
:080684004FC401F0D1DE1200A9
:10068C0060C462F461C463F43F0E0401646F000E35
:10069C00656F73DF2B6A2C6A3F0E2B24E96E000EFC
:1006AC002C20EA6EEECF01F00150000A18E0ACB23B
:1006BC0001D0FDD73F0E2B24E96E000E2C20EA6EE4
:1006CC00EECF00F000C0ADFF010E2B24006E000E2B
:1006DC002C20016E00C02BF001C02CF0DDD71200D5
:1006EC0060C462F461C463F4000E040161BFFF0EC8
:1006FC00646F656F3F0E666F000E676F9DDE2B6A31
:10070C002C6A3F0E2B24E96E000E2C20EA6EEECFE5
:10071C0001F00150000A18E0ACB201D0FDD73F0E39
:10072C002B24E96E000E2C20EA6EEECF00F000C0F8
:10073C00ADFF010E2B24006E000E2C20016E00C0AC
:0A074C002BF001C02CF0DDD71200E5
:10075600770E0401606F8BDF0D0E0401606F87DF7B
:100766000A0E0401606F83DF2D6A2E6A2F6A306AD3
:10077600000E305C08E1000E2F5C05E1040E2E5CD5
:1007860002E1000E2D5C32E22DC060F42EC061F451
:10079600AADF3B0E606F6BDF4E0E2D24E96E000E56
:1007A6002E20EA6EEECF00F000C060F4000E0401C9
:1007B600616F69DF0D0E606F5ADF0A0E0401606F0C
:1007C60056DF010E2D24006E000E2E20016E000E47
:1007D6002F20026E000E3020036E00C02DF001C0E7
:1007E6002EF002C02FF003C030F0C2D76D0E040108
:1007F600606F3DDF0D0E0401606F39DF0A0E0401E4
:06080600606F35DF1200F7
:10080C000900F5CFE6FF0006FBE10106F9E1120055
:10081C00E80E04014E6F030E4F6F700E506F040EF6
:10082C00516FFF0E526FFF0E536F000E546F000E80
:10083C00556FFF0E566FFF0E576F000E586F000E60
:10084C00596FFF0E5A6FFF0E5B6F000E5C6F000E40
:10085C005D6FAC8A900EAB6E948E949C9EAA03D066
:08086C00AECF00F0FBD7120033
:10087400956A926AFD0E936EFF0E946E9690969210
:0608840096949696120006
:10088A00FF0E3B6EFF0E3C6EFF0E3D6EFF0E3E6E80
:10089A00C26A241C006E0050C116070EC012C08E18
:0408AA00C2801200F6
:1008AE002D6A2E6A2F6A306A000E305C08E1000E47
:1008BE002F5C05E1040E2E5C02E1000E2D5C1CE2A5
:1008CE004E0E2D24E16E000E2E20E26EE66A010E13
:1008DE002D24006E000E2E20016E000E2F20026EB3
:1008EE00000E3020036E00C02DF001C02EF002C0AD
:0A08FE002FF003C030F0D8D712002D
:10090800010E806EDB0E04015E25F66E0B0E5F2174
:10091800F76E000EF86E000E5FBFFF0EF82209009A
:06092800F5CF83FF120071
:10092E00000E211802E1010E20180AE1010E292401
:10093E00006E000E2A20016E00C029F001C02AF0C0
:10094E00800E040A006E800E2A18005C02E1295007
:10095E00000806E2296A2A6A206A216A336A346A22
:02096E00120075
:0C097000F18CC00EF212F286F290120020
:10097C00C26A241C006E0050C116070EC012C08E35
:10098C005EC400F000360090003600900050C21299
:10099C00C28063DEC282C2A201D0FDD7C4CF01F0F7
:0E09AC00006AC3500012000E0112C290120029
:1009BA00F3EC05F05ADF64DFC26A8492849484906F
:1009CA008192B886010EB06E370EAF6EAC8421DF0D
:1009DA003D0E0B6EE10E0C6E3F0E0D6E0D2EFED708
:1009EA000C2EFCD70B2EFAD7000000005BDFBBDF12
:1009FA00370EF216000E361802E1000E3518D8A48A
:100A0A00D7D08482849437B002D0849001D0848075
:100A1A000A0E04015E6FADDF0A0E046E000E056E4B
:100A2A00E5DC010E0024316E000E0120326E31C069
:100A3A005EF432C05FF463DF82A416D0000E23187E
:100A4A0002E1010E221805E1226A236A376A386A2E
:100A5A0008D0010E226E000E236E010E376E000EB4
:100A6A00386E82A401D0FDD7000E1D1802E1010ED6
:100A7A001C18D8A47CD0849237B002D0849001D0BC
:100A8A0084808484000E381802E1000E371810E1C1
:100A9A0082A00CD0000E1F1802E1000E1E1805E1FC
:100AAA0041DF010E1E6E000E1F6E02D01E6A1F6A03
:100ABA00000E381802E1010E37182FE1010E206EE0
:100ACA00000E216E82A018D04E0E2924016E000E4F
:100ADA002A20026E01C0E9FF02C0EAFFEECF00F051
:100AEA00002A01C0E1FF02C0E2FF00C0E6FF296A56
:100AFA002A6A82A001D0FDD74E0E2924E96E000E83
:100B0A002A20EA6EEECF01F00150FF0A06E1370E05
:100B1A00F216010E256E000E266E000E261802E150
:100B2A00010E251806E112DEBDDE256A266AC80E08
:100B3A00F21282A21BD0000E281802E1000E27181A
:100B4A0014E1370EF2161C6A1D6A010E276E000E9A
:100B5A00286E690E0401606F88DD0D0E0401606F56
:100B6A0084DD0A0E0401606F80DDE3D77DD782A29F
:100B7A001ED0000E281802E1010E271817E16D0E8B
:100B8A000401606F72DD0D0E0401606F6EDD0A0EE6
:100B9A000401606F6ADD296A2A6A84DE010E1C6E0E
:100BAA00000E1D6E276A286AC80EF212E0D722D7F5
:020BBA00FFD763
:100BE60010EE1CF01F0E006E010E016EBC0EF66EAE
:0E0BF6000B0EF76E000EF86E06EC04F0120007
:020BBC00000037
:020BBE00010034
:020BC000000033
:020BC200000031
:010BC4003000
:020BC50000002E
:020BC70001002B
:020BC90000002A
:020BCB00000028
:040BCD000000000024
:020BD100010021
:020BD30001001F
:020BD50000001E
:020BD70000001C
:020BD90000001A
:0A0BDB003F065B4F666D7D077F6FDC
:020000040030CA
:0E000000010E1F1EFF8381FF0FC00FE00F4097
:00000001FF
