:04000000C5EF04F054
:1000080000C017F001C016F002C015F0E1CF1AF0D9
:10001800E2CF1BF0E9CF18F0EACF19F0000E37183D
:1000280002E1000E36184BE1000E311802E1000E15
:1000380030180DE1326A336A396A3A6A010E206E65
:10004800000E216E010E306E000E316E27D0010EAB
:100058003924006E000E3A20016E00C039F001C04C
:100068003AF03A50231802E12250391817E1206A71
:10007800216A306A316A4E0E3224016E000E332036
:10008800026E01C0E9FF02C0EAFFEECF00F0002ACD
:1000980001C0E1FF02C0E2FF00C0E6FF4E0E3224BD
:1000A800E96E000E3320EA6EEECF01F00150FF0A30
:1000B80006E1370EF216010E286E000E296E000EAC
:1000C800371802E1010E361802E17FEC04F081AE28
:1000D80001D0FDD7F29017C000F016C001F015C08E
:1000E80002F018C0E9FF19C0EAFF1AC0E1FF1BC0FF
:0400F800E2FF110012
:1000FC000B6A0A6A096A086A0E6A033408360450E5
:10010C00085E0550D8A0053C095E0650D8A0063CF8
:10011C000A5E0750D8A0073C0B5EE86AD8A0010E17
:10012C000E5E0336070E0C6E0334083609360A369B
:10013C000B360E36045003A012D0085E0550D8A022
:10014C00053C095E0650D8A0063C0A5E0750D8A0B4
:10015C00073C0B5EE86AD8A0010E0E5E11D0082693
:10016C000550D8B0053C09260650D8B0063C0A26E6
:10017C000750D8B0073C0B26E86AD8B0010E0E2603
:10018C0003360C2ED1D70234083609360A360B3614
:10019C000E36045003A012D0085E0550D8A0053CC2
:1001AC00095E0650D8A0063C0A5E0750D8A0073C52
:1001BC000B5EE86AD8A0010E0E5E11D00826055021
:1001CC00D8B0053C09260650D8B0063C0A26075084
:1001DC00D8B0073C0B26E86AD8B0010E0E260236C2
:1001EC00070E0C6E0234083609360A360B360E36FC
:1001FC00045002A012D0085E0550D8A0053C095E40
:10020C000650D8A0063C0A5E0750D8A0073C0B5EEF
:10021C00E86AD8A0010E0E5E11D008260550D8B0A1
:10022C00053C09260650D8B0063C0A260750D8B023
:10023C00073C0B26E86AD8B0010E0E2602360C2EAF
:10024C00D1D70134083609360A360B360E3604502F
:10025C0002A012D0085E0550D8A0053C095E0650DD
:10026C00D8A0063C0A5E0750D8A0073C0B5EE86A93
:10027C00D8A0010E0E5E11D008260550D8B0053C52
:10028C0009260650D8B0063C0A260750D8B0073CC1
:10029C000B26E86AD8B0010E0E260136070E0C6E3E
:1002AC000134083609360A360B360E36045001A0D6
:1002BC0012D0085E0550D8A0053C095E0650D8A0A7
:1002CC00063C0A5E0750D8A0073C0B5EE86AD8A033
:1002DC00010E0E5E11D008260550D8B0053C09263B
:1002EC000650D8B0063C0A260750D8B0073C0B265F
:1002FC00E86AD8B0010E0E2601360C2ED1D7003488
:10030C00083609360A360B360E36045001A012D0C8
:10031C00085E0550D8A0053C095E0650D8A0063CE6
:10032C000A5E0750D8A0073C0B5EE86AD8A0010E05
:10033C000E5E11D008260550D8B0053C0926065093
:10034C00D8B0063C0A260750D8B0073C0B26E86A02
:10035C00D8B0010E0E260036070E0C6E003408368F
:10036C0009360A360B360E36045000A012D0085E41
:10037C000550D8A0053C095E0650D8A0063C0A5E84
:10038C000750D8A0073C0B5EE86AD8A0010E0E5EA1
:10039C0011D008260550D8B0053C09260650D8B017
:1003AC00063C0A260750D8B0073C0B26E86AD8B0A2
:1003BC00010E0E2600360C2ED1D700B00ED00450F4
:1003CC0008260550D8B0053C09260650D8B0063C86
:0C03DC000A260750D8B0073C0B26120080
:0E03E800ACB202D00000FCD770C4ADFF120012
:1003F600086A096A100E0C6E013408360936045074
:10040600085E0550D8A0053C095ED8B007D0045058
:1004160008260550D8B0053C0926D8900036013686
:060426000C2EEAD71200C3
:10042C000401696B0B0E695D0AE269516625E16E88
:10043C00000E6721E26E300EE66E692BF3D7695120
:10044C006625E16E000E6721E26EE66A000E006E14
:10045C00651908E10050641905E10050631902E1C7
:10046C006251000A01E17CD0686B800E6519006E48
:10047C00800E005C08E1000E645D05E1000E635D1A
:10048C0002E1000E625D0FE2010E686F6A6B6B6B2E
:10049C006C6B6D6B62516A5F63516B5B64516C5B2F
:1004AC0065516D5B08D062C46AF463C46BF464C4B8
:1004BC006CF465C46DF40A0E696F000E006E6D1954
:1004CC0008E100506C1905E100506B1902E16A510A
:1004DC00000A3EE0695166256E6F000E67216F6F52
:1004EC000A0E046E000E056E066E076E6AC400F0EE
:1004FC006BC401F06CC402F06DC403F0F9DD08C0EC
:10050C0000F009C001F00AC002F00BC003F0300E7D
:10051C0000266EC4E1FF6FC4E2FF00C0E6FF69076E
:10052C000A0E046E000E056E066E076E6AC400F0AD
:10053C006BC401F06CC402F06DC403F0D9DD00C0D3
:10054C006AF401C06BF402C06CF403C06DF4B5D74F
:10055C00685306E066C4E1FF67C4E2FF2D0EE66E49
:02056C0012007B
:10056E000401676B060E675D0AE267516425E16E52
:10057E00000E6521E26E300EE66E672BF3D76751E3
:10058E006425E16E000E6521E26EE66A000E6319C7
:10059E0002E1000E621901E152D0666B800E631902
:1005AE00006E800E005C02E1000E625D0AE2010E3A
:1005BE00666F62510008686F63C469F4000E695774
:1005CE0004D062C468F463C469F4050E676F000E4C
:1005DE00691902E1000E68192AE0675164256A6FF5
:1005EE00000E65216B6F0A0E046E000E056E68C458
:1005FE0000F069C401F0F8DE08C000F009C001F097
:10060E00300E00266AC4E1FF6BC4E2FF00C0E6FFB5
:10061E0067070A0E046E000E056E68C400F069C40A
:10062E0001F0E2DE00C068F401C069F4D0D7665371
:10063E0006E064C4E1FF65C4E2FF2D0EE66E120013
:10064E00F250026EF29E0500FF6A0150FE6E0050DF
:08065E00FD6E02BEF28E1200D7
:1006660060C462F461C463F4000E040161BFFF0E4E
:10067600646F656F3F0E666F000E676FD4DE2A6A81
:100686002B6A3F0E2A24E96E000E2B20EA6EEECF6F
:1006960001F00150000A18E0ACB201D0FDD73F0EC0
:1006A6002A24E96E000E2B20EA6EEECF00F000C081
:1006B600ADFF010E2A24006E000E2B20016E00C035
:0A06C6002AF001C02BF0DDD712006E
:0E06D000570E0D6E0D2EFED70000000012001A
:1006DE0058C4E1FF59C4E2FF60C4E6FF56C400F0FF
:0806EE0057C401F0ADDF12005A
:1006F60060C462F461C463F43F0E0401646F000ECB
:10070600656F32DF2A6A2B6A3F0E2A24E96E000ED5
:100716002B20EA6EEECF01F00150000A18E0ACB2D1
:1007260001D0FDD73F0E2A24E96E000E2B20EA6E7B
:10073600EECF00F000C0ADFF010E2A24006E000EC1
:100746002B20016E00C02AF001C02BF0DDD712006D
:100756002C6A2D6A2E6A2F6A000E2F5C08E1000EA5
:100766002E5C05E1040E2D5C02E1000E2C5C32E2EB
:100776002CC060F42DC061F473DF3B0E606FACDFFC
:100786004E0E2C24E96E000E2D20EA6EEECF00F000
:1007960000C060F4000E0401616FAADF0D0E606FE9
:1007A6009BDF0A0E0401606F97DF010E2C24006E9A
:1007B600000E2D20016E000E2E20026E000E2F2040
:1007C600036E00C02CF001C02DF002C02EF003C055
:0607D6002FF0C2D7120053
:1007DC000900F5CFE6FF0006FBE10106F9E1120086
:1007EC00E80E0401566F030E576F700E586F040E0F
:1007FC00596FFF0E4E6FFF0E4F6F000E506F000EB5
:10080C00516FFF0E526FFF0E536F000E546F000EA0
:10081C00556FFF0E5A6FFF0E5B6F000E5C6F000E74
:10082C005D6FAC8A900EAB6E948E949C9EAA03D096
:08083C00AECF00F0FBD7120063
:10084400956A926AFD0E936EFF0E946E9690969240
:0608540096949696120036
:10085A00FF0E3B6EFF0E3C6EFF0E3D6EFF0E3E6EB0
:10086A00C26A381C006E0050C116070EC012C08E34
:04087A00C280120026
:10087E002C6A2D6A2E6A2F6A000E2F5C08E1000E7C
:10088E002E5C05E1040E2D5C02E1000E2C5C1CE2D8
:10089E004E0E2C24E16E000E2D20E26EE66A010E45
:1008AE002C24006E000E2D20016E000E2E20026EE6
:1008BE00000E2F20036E00C02CF001C02DF002C0E0
:0A08CE002EF003C02FF0D8D712005F
:1008D800010E806E790E04015E25F66E0B0E5F2107
:1008E800F76E000EF86E000E5FBFFF0EF8220900CB
:0608F800F5CF83FF1200A2
:1008FE00000E211802E1010E20180AE1010E322429
:10090E00006E000E3320016E00C032F001C033F0D5
:10091E00800E040A006E800E3318005C02E1325025
:10092E00000806E2326A336A206A216A306A316A46
:02093E001200A5
:0C094000F18CC00EF212F286F290120050
:10094C00C26A381C006E0050C116070EC012C08E51
:10095C005EC400F000360090003600900050C212C9
:10096C00C280B0DEC282C2A201D0FDD7C4CF01F0DA
:0E097C00006AC3500012000E0112C290120059
:10098A00C2EC05F05ADF64DFC26A849284948490D0
:10099A008192B886B06ACF0EAF6EAC8422DF3D0E6C
:1009AA000B6EE10E0C6E3F0E0D6E0D2EFED70C2E49
:1009BA00FCD70B2EFAD7000000005CDFBCDF370E35
:1009CA00F216000E351802E1000E3418D8A4BFD072
:1009DA008482849436B002D0849001D084800A0E36
:1009EA0004015E6FAEDF0A0E046E000E056EFEDCB9
:1009FA00010E0024226E000E0120236E22C05EF436
:100A0A0023C05FF464DF82A416D0000E1D1802E131
:100A1A00010E1C1805E11C6A1D6A366A376A08D07D
:100A2A00010E1C6E000E1D6E010E366E000E376E24
:100A3A0082A401D0FDD7000E1F1802E1010E1E1874
:100A4A00D8A470D0849236B002D0849001D0848029
:100A5A008484000E371802E1000E361810E182A0D5
:100A6A000CD0000E271802E1000E261805E142DF1D
:100A7A00010E266E000E276E02D0266A276A000E25
:100A8A00371802E1010E36182FE1010E206E000E12
:100A9A00216E82A018D04E0E3224016E000E332031
:100AAA00026E01C0E9FF02C0EAFFEECF00F0002AA1
:100ABA0001C0E1FF02C0E2FF00C0E6FF326A336A0A
:100ACA0082A001D0FDD74E0E3224E96E000E3320EB
:100ADA00EA6EEECF01F00150FF0A06E1370EF21678
:100AEA00010E286E000E296E000E291802E1010E71
:100AFA00281806E12BDEBEDE286A296AC80EF21221
:100B0A0082A20FD0000E251802E1000E241808E177
:100B1A00370EF2161E6A1F6A010E246E000E256E2B
:100B2A00EFD789D782A212D0000E251802E1010E52
:100B3A0024180BE1326A336A9DDE010E1E6E000E26
:100B4A001F6E246A256AC80EF212ECD73AD7FFD76D
:100B840010EE1CF01F0E006E010E016E5A0EF66E72
:0E0B94000B0EF76E000EF86EEEEC03F0120082
:020B5A00000099
:020B5C00000097
:020B5E00000095
:020B6000010092
:020B6200010090
:020B640001008E
:020B660000008D
:020B680000008B
:040B6A000000000087
:020B6E00010084
:020B7000000083
:020B7200000081
:020B740000007F
:010B7600304E
:020B770000007C
:0A0B79003F065B4F666D7D077F6F3E
:00000001FF
